{"abi":[{"type":"constructor","inputs":[{"name":"_issuer","type":"address","internalType":"address"}],"stateMutability":"nonpayable"},{"type":"function","name":"diplomas","inputs":[{"name":"","type":"uint256","internalType":"uint256"}],"outputs":[{"name":"id","type":"uint256","internalType":"uint256"},{"name":"student","type":"address","internalType":"address"},{"name":"documentHash","type":"bytes32","internalType":"bytes32"},{"name":"issuedAt","type":"uint256","internalType":"uint256"},{"name":"institution","type":"string","internalType":"string"}],"stateMutability":"view"},{"type":"function","name":"issueDiploma","inputs":[{"name":"student","type":"address","internalType":"address"},{"name":"documentHash","type":"bytes32","internalType":"bytes32"},{"name":"institution","type":"string","internalType":"string"}],"outputs":[{"name":"","type":"uint256","internalType":"uint256"}],"stateMutability":"nonpayable"},{"type":"function","name":"issuer","inputs":[],"outputs":[{"name":"","type":"address","internalType":"address"}],"stateMutability":"view"},{"type":"function","name":"nextId","inputs":[],"outputs":[{"name":"","type":"uint256","internalType":"uint256"}],"stateMutability":"view"},{"type":"function","name":"verifyDiploma","inputs":[{"name":"id","type":"uint256","internalType":"uint256"},{"name":"documentHash","type":"bytes32","internalType":"bytes32"}],"outputs":[{"name":"","type":"bool","internalType":"bool"}],"stateMutability":"view"},{"type":"event","name":"DiplomaIssued","inputs":[{"name":"id","type":"uint256","indexed":true,"internalType":"uint256"},{"name":"student","type":"address","indexed":true,"internalType":"address"},{"name":"documentHash","type":"bytes32","indexed":false,"internalType":"bytes32"}],"anonymous":false}],"bytecode":{"object":"0x608060405234801561000f575f5ffd5b50604051610ced380380610ced833981810160405281019061003191906100db565b805f5f6101000a81548173ffffffffffffffffffffffffffffffffffffffff021916908373ffffffffffffffffffffffffffffffffffffffff1602179055506001808190555050610106565b5f5ffd5b5f73ffffffffffffffffffffffffffffffffffffffff82169050919050565b5f6100aa82610081565b9050919050565b6100ba816100a0565b81146100c4575f5ffd5b50565b5f815190506100d5816100b1565b92915050565b5f602082840312156100f0576100ef61007d565b5b5f6100fd848285016100c7565b91505092915050565b610bda806101135f395ff3fe608060405234801561000f575f5ffd5b5060043610610055575f3560e01c80631d1438481461005957806335dfc1c31461007757806361b8ce8c146100ab57806395fa12d6146100c9578063d2174c37146100f9575b5f5ffd5b610061610129565b60405161006e9190610498565b60405180910390f35b610091600480360381019061008c91906104ec565b61014d565b6040516100a29594939291906105ae565b60405180910390f35b6100b3610224565b6040516100c09190610606565b60405180910390f35b6100e360048036038101906100de9190610649565b61022a565b6040516100f091906106a1565b60405180910390f35b610113600480360381019061010e9190610745565b61024a565b6040516101209190610606565b60405180910390f35b5f5f9054906101000a900473ffffffffffffffffffffffffffffffffffffffff1681565b6002602052805f5260405f205f91509050805f015490806001015f9054906101000a900473ffffffffffffffffffffffffffffffffffffffff16908060020154908060030154908060040180546101a3906107e3565b80601f01602080910402602001604051908101604052809291908181526020018280546101cf906107e3565b801561021a5780601f106101f15761010080835404028352916020019161021a565b820191905f5260205f20905b8154815290600101906020018083116101fd57829003601f168201915b5050505050905085565b60015481565b5f8160025f8581526020019081526020015f206002015414905092915050565b5f5f5f9054906101000a900473ffffffffffffffffffffffffffffffffffffffff1673ffffffffffffffffffffffffffffffffffffffff163373ffffffffffffffffffffffffffffffffffffffff16146102d9576040517f08c379a00000000000000000000000000000000000000000000000000000000081526004016102d09061085d565b60405180910390fd5b5f60015f8154809291906102ec906108a8565b9190505590506040518060a001604052808281526020018773ffffffffffffffffffffffffffffffffffffffff16815260200186815260200142815260200185858080601f0160208091040260200160405190810160405280939291908181526020018383808284375f81840152601f19601f8201169050808301925050505050505081525060025f8381526020019081526020015f205f820151815f01556020820151816001015f6101000a81548173ffffffffffffffffffffffffffffffffffffffff021916908373ffffffffffffffffffffffffffffffffffffffff160217905550604082015181600201556060820151816003015560808201518160040190816103fa9190610abc565b509050508573ffffffffffffffffffffffffffffffffffffffff16817f2dda3059f6bc91fd8a5323549926b27acb705fb5aed680141cef25d6ae9cc6bf876040516104459190610b8b565b60405180910390a380915050949350505050565b5f73ffffffffffffffffffffffffffffffffffffffff82169050919050565b5f61048282610459565b9050919050565b61049281610478565b82525050565b5f6020820190506104ab5f830184610489565b92915050565b5f5ffd5b5f5ffd5b5f819050919050565b6104cb816104b9565b81146104d5575f5ffd5b50565b5f813590506104e6816104c2565b92915050565b5f60208284031215610501576105006104b1565b5b5f61050e848285016104d8565b91505092915050565b610520816104b9565b82525050565b5f819050919050565b61053881610526565b82525050565b5f81519050919050565b5f82825260208201905092915050565b8281835e5f83830152505050565b5f601f19601f8301169050919050565b5f6105808261053e565b61058a8185610548565b935061059a818560208601610558565b6105a381610566565b840191505092915050565b5f60a0820190506105c15f830188610517565b6105ce6020830187610489565b6105db604083018661052f565b6105e86060830185610517565b81810360808301526105fa8184610576565b90509695505050505050565b5f6020820190506106195f830184610517565b92915050565b61062881610526565b8114610632575f5ffd5b50565b5f813590506106438161061f565b92915050565b5f5f6040838503121561065f5761065e6104b1565b5b5f61066c858286016104d8565b925050602061067d85828601610635565b9150509250929050565b5f8115159050919050565b61069b81610687565b82525050565b5f6020820190506106b45f830184610692565b92915050565b6106c381610478565b81146106cd575f5ffd5b50565b5f813590506106de816106ba565b92915050565b5f5ffd5b5f5ffd5b5f5ffd5b5f5f83601f840112610705576107046106e4565b5b8235905067ffffffffffffffff811115610722576107216106e8565b5b60208301915083600182028301111561073e5761073d6106ec565b5b9250929050565b5f5f5f5f6060858703121561075d5761075c6104b1565b5b5f61076a878288016106d0565b945050602061077b87828801610635565b935050604085013567ffffffffffffffff81111561079c5761079b6104b5565b5b6107a8878288016106f0565b925092505092959194509250565b7f4e487b71000000000000000000000000000000000000000000000000000000005f52602260045260245ffd5b5f60028204905060018216806107fa57607f821691505b60208210810361080d5761080c6107b6565b5b50919050565b7f4f6e6c79206973737565720000000000000000000000000000000000000000005f82015250565b5f610847600b83610548565b915061085282610813565b602082019050919050565b5f6020820190508181035f8301526108748161083b565b9050919050565b7f4e487b71000000000000000000000000000000000000000000000000000000005f52601160045260245ffd5b5f6108b2826104b9565b91507fffffffffffffffffffffffffffffffffffffffffffffffffffffffffffffffff82036108e4576108e361087b565b5b600182019050919050565b7f4e487b71000000000000000000000000000000000000000000000000000000005f52604160045260245ffd5b5f819050815f5260205f209050919050565b5f6020601f8301049050919050565b5f82821b905092915050565b5f600883026109787fffffffffffffffffffffffffffffffffffffffffffffffffffffffffffffffff8261093d565b610982868361093d565b95508019841693508086168417925050509392505050565b5f819050919050565b5f6109bd6109b86109b3846104b9565b61099a565b6104b9565b9050919050565b5f819050919050565b6109d6836109a3565b6109ea6109e2826109c4565b848454610949565b825550505050565b5f5f905090565b610a016109f2565b610a0c8184846109cd565b505050565b5b81811015610a2f57610a245f826109f9565b600181019050610a12565b5050565b601f821115610a7457610a458161091c565b610a4e8461092e565b81016020851015610a5d578190505b610a71610a698561092e565b830182610a11565b50505b505050565b5f82821c905092915050565b5f610a945f1984600802610a79565b1980831691505092915050565b5f610aac8383610a85565b9150826002028217905092915050565b610ac58261053e565b67ffffffffffffffff811115610ade57610add6108ef565b5b610ae882546107e3565b610af3828285610a33565b5f60209050601f831160018114610b24575f8415610b12578287015190505b610b1c8582610aa1565b865550610b83565b601f198416610b328661091c565b5f5b82811015610b5957848901518255600182019150602085019450602081019050610b34565b86831015610b765784890151610b72601f891682610a85565b8355505b6001600288020188555050505b505050505050565b5f602082019050610b9e5f83018461052f565b9291505056fea2646970667358221220ab38dc90ecb30117c93a33012f89095febc57ade48257afcf57e09f8df8ef5a464736f6c634300081e0033","linkReferences":{}},"methodIdentifiers":{"diplomas(uint256)":"35dfc1c3","issueDiploma(address,bytes32,string)":"d2174c37","issuer()":"1d143848","nextId()":"61b8ce8c","verifyDiploma(uint256,bytes32)":"95fa12d6"},"id":16}