{"abi":[{"type":"constructor","inputs":[{"name":"_admin","type":"address","internalType":"address"}],"stateMutability":"nonpayable"},{"type":"function","name":"addReview","inputs":[{"name":"_id","type":"uint256","internalType":"uint256"},{"name":"_score","type":"uint8","internalType":"uint8"}],"outputs":[],"stateMutability":"nonpayable"},{"type":"function","name":"admin","inputs":[],"outputs":[{"name":"","type":"address","internalType":"address"}],"stateMutability":"view"},{"type":"function","name":"approveProject","inputs":[{"name":"_id","type":"uint256","internalType":"uint256"}],"outputs":[],"stateMutability":"nonpayable"},{"type":"function","name":"averageScore","inputs":[{"name":"_id","type":"uint256","internalType":"uint256"}],"outputs":[{"name":"","type":"uint256","internalType":"uint256"}],"stateMutability":"view"},{"type":"function","name":"createProject","inputs":[{"name":"_title","type":"string","internalType":"string"},{"name":"_ipfsHash","type":"string","internalType":"string"}],"outputs":[{"name":"","type":"uint256","internalType":"uint256"}],"stateMutability":"nonpayable"},{"type":"function","name":"getProject","inputs":[{"name":"_id","type":"uint256","internalType":"uint256"}],"outputs":[{"name":"id","type":"uint256","internalType":"uint256"},{"name":"submitter","type":"address","internalType":"address"},{"name":"title","type":"string","internalType":"string"},{"name":"ipfsHash","type":"string","internalType":"string"},{"name":"createdAt","type":"uint256","internalType":"uint256"},{"name":"approved","type":"bool","internalType":"bool"},{"name":"totalScore","type":"uint256","internalType":"uint256"},{"name":"numReviews","type":"uint256","internalType":"uint256"}],"stateMutability":"view"},{"type":"function","name":"hasReviewed","inputs":[{"name":"","type":"uint256","internalType":"uint256"},{"name":"","type":"address","internalType":"address"}],"outputs":[{"name":"","type":"bool","internalType":"bool"}],"stateMutability":"view"},{"type":"function","name":"nextId","inputs":[],"outputs":[{"name":"","type":"uint256","internalType":"uint256"}],"stateMutability":"view"},{"type":"function","name":"projects","inputs":[{"name":"","type":"uint256","internalType":"uint256"}],"outputs":[{"name":"id","type":"uint256","internalType":"uint256"},{"name":"submitter","type":"address","internalType":"address"},{"name":"title","type":"string","internalType":"string"},{"name":"ipfsHash","type":"string","internalType":"string"},{"name":"createdAt","type":"uint256","internalType":"uint256"},{"name":"approved","type":"bool","internalType":"bool"},{"name":"totalScore","type":"uint256","internalType":"uint256"},{"name":"numReviews","type":"uint256","internalType":"uint256"}],"stateMutability":"view"},{"type":"function","name":"updateProject","inputs":[{"name":"_id","type":"uint256","internalType":"uint256"},{"name":"_title","type":"string","internalType":"string"},{"name":"_ipfsHash","type":"string","internalType":"string"}],"outputs":[],"stateMutability":"nonpayable"},{"type":"event","name":"ProjectApproved","inputs":[{"name":"id","type":"uint256","indexed":true,"internalType":"uint256"},{"name":"admin","type":"address","indexed":true,"internalType":"address"}],"anonymous":false},{"type":"event","name":"ProjectCreated","inputs":[{"name":"id","type":"uint256","indexed":true,"internalType":"uint256"},{"name":"submitter","type":"address","indexed":true,"internalType":"address"},{"name":"title","type":"string","indexed":false,"internalType":"string"},{"name":"ipfsHash","type":"string","indexed":false,"internalType":"string"}],"anonymous":false},{"type":"event","name":"ProjectReviewed","inputs":[{"name":"id","type":"uint256","indexed":true,"internalType":"uint256"},{"name":"reviewer","type":"address","indexed":true,"internalType":"address"},{"name":"score","type":"uint8","indexed":false,"internalType":"uint8"}],"anonymous":false},{"type":"event","name":"ProjectUpdated","inputs":[{"name":"id","type":"uint256","indexed":true,"internalType":"uint256"},{"name":"title","type":"string","indexed":false,"internalType":"string"},{"name":"ipfsHash","type":"string","indexed":false,"internalType":"string"}],"anonymous":false}],"bytecode":{"object":"0x608060405234801561000f575f5ffd5b50604051611d4e380380611d4e83398181016040528101906100319190610115565b5f73ffffffffffffffffffffffffffffffffffffffff168173ffffffffffffffffffffffffffffffffffffffff161461006a578061006c565b335b5f5f6101000a81548173ffffffffffffffffffffffffffffffffffffffff021916908373ffffffffffffffffffffffffffffffffffffffff1602179055506001808190555050610140565b5f5ffd5b5f73ffffffffffffffffffffffffffffffffffffffff82169050919050565b5f6100e4826100bb565b9050919050565b6100f4816100da565b81146100fe575f5ffd5b50565b5f8151905061010f816100eb565b92915050565b5f6020828403121561012a576101296100b7565b5b5f61013784828501610101565b91505092915050565b611c018061014d5f395ff3fe608060405234801561000f575f5ffd5b506004361061009c575f3560e01c80638c4c1347116100645780638c4c134714610185578063f0f3f2c8146101a1578063f851a440146101d8578063fc69d836146101f6578063ffce0692146102125761009c565b8063107046bd146100a057806361b8ce8c146100d75780636bd06204146100f55780637c7198cc146101255780638a8f221a14610155575b5f5ffd5b6100ba60048036038101906100b59190610ed2565b61022e565b6040516100ce989796959493929190610fd5565b60405180910390f35b6100df6103a9565b6040516100ec919061105f565b60405180910390f35b61010f600480360381019061010a91906110d9565b6103af565b60405161011c919061105f565b60405180910390f35b61013f600480360381019061013a9190611181565b6105cd565b60405161014c91906111bf565b60405180910390f35b61016f600480360381019061016a9190610ed2565b6105f7565b60405161017c919061105f565b60405180910390f35b61019f600480360381019061019a91906111d8565b61063d565b005b6101bb60048036038101906101b69190610ed2565b6107ce565b6040516101cf989796959493929190610fd5565b60405180910390f35b6101e061096b565b6040516101ed9190611269565b60405180910390f35b610210600480360381019061020b9190610ed2565b61098f565b005b61022c600480360381019061022791906112b8565b610b31565b005b6002602052805f5260405f205f91509050805f015490806001015f9054906101000a900473ffffffffffffffffffffffffffffffffffffffff169080600201805461027890611323565b80601f01602080910402602001604051908101604052809291908181526020018280546102a490611323565b80156102ef5780601f106102c6576101008083540402835291602001916102ef565b820191905f5260205f20905b8154815290600101906020018083116102d257829003601f168201915b50505050509080600301805461030490611323565b80601f016020809104026020016040519081016040528092919081815260200182805461033090611323565b801561037b5780601f106103525761010080835404028352916020019161037b565b820191905f5260205f20905b81548152906001019060200180831161035e57829003601f168201915b505050505090806004015490806005015f9054906101000a900460ff16908060060154908060070154905088565b60015481565b5f5f60015f8154809291906103c390611380565b9190505590506040518061010001604052808281526020013373ffffffffffffffffffffffffffffffffffffffff16815260200187878080601f0160208091040260200160405190810160405280939291908181526020018383808284375f81840152601f19601f82011690508083019250505050505050815260200185858080601f0160208091040260200160405190810160405280939291908181526020018383808284375f81840152601f19601f8201169050808301925050505050505081526020014281526020015f151581526020015f81526020015f81525060025f8381526020019081526020015f205f820151815f01556020820151816001015f6101000a81548173ffffffffffffffffffffffffffffffffffffffff021916908373ffffffffffffffffffffffffffffffffffffffff16021790555060408201518160020190816105159190611594565b50606082015181600301908161052b9190611594565b506080820151816004015560a0820151816005015f6101000a81548160ff02191690831515021790555060c0820151816006015560e082015181600701559050503373ffffffffffffffffffffffffffffffffffffffff16817fa7f8f582d090b5312bbe3d5f616508e184319e9e0f3824445f07745728304c5f888888886040516105b9949392919061169d565b60405180910390a380915050949350505050565b6003602052815f5260405f20602052805f5260405f205f915091509054906101000a900460ff1681565b5f5f60025f8481526020019081526020015f2090505f816007015403610620575f915050610638565b806007015481600601546106349190611703565b9150505b919050565b843373ffffffffffffffffffffffffffffffffffffffff1660025f8381526020019081526020015f206001015f9054906101000a900473ffffffffffffffffffffffffffffffffffffffff1673ffffffffffffffffffffffffffffffffffffffff16146106df576040517f08c379a00000000000000000000000000000000000000000000000000000000081526004016106d69061177d565b60405180910390fd5b60025f8781526020019081526020015f206005015f9054906101000a900460ff1615610740576040517f08c379a0000000000000000000000000000000000000000000000000000000008152600401610737906117e5565b60405180910390fd5b848460025f8981526020019081526020015f20600201918261076392919061180d565b50828260025f8981526020019081526020015f20600301918261078792919061180d565b50857fa88de682fa5ed0f254c1e550b4487adb20bc2c87c0dc8dd7df88153fa642b15f868686866040516107be949392919061169d565b60405180910390a2505050505050565b5f5f6060805f5f5f5f5f60025f8b81526020019081526020015f209050805f0154816001015f9054906101000a900473ffffffffffffffffffffffffffffffffffffffff1682600201836003018460040154856005015f9054906101000a900460ff168660060154876007015485805461084790611323565b80601f016020809104026020016040519081016040528092919081815260200182805461087390611323565b80156108be5780601f10610895576101008083540402835291602001916108be565b820191905f5260205f20905b8154815290600101906020018083116108a157829003601f168201915b505050505095508480546108d190611323565b80601f01602080910402602001604051908101604052809291908181526020018280546108fd90611323565b80156109485780601f1061091f57610100808354040283529160200191610948565b820191905f5260205f20905b81548152906001019060200180831161092b57829003601f168201915b505050505094509850985098509850985098509850985050919395975091939597565b5f5f9054906101000a900473ffffffffffffffffffffffffffffffffffffffff1681565b5f5f9054906101000a900473ffffffffffffffffffffffffffffffffffffffff1673ffffffffffffffffffffffffffffffffffffffff163373ffffffffffffffffffffffffffffffffffffffff1614610a1d576040517f08c379a0000000000000000000000000000000000000000000000000000000008152600401610a1490611924565b60405180910390fd5b5f73ffffffffffffffffffffffffffffffffffffffff1660025f8381526020019081526020015f206001015f9054906101000a900473ffffffffffffffffffffffffffffffffffffffff1673ffffffffffffffffffffffffffffffffffffffff1603610abe576040517f08c379a0000000000000000000000000000000000000000000000000000000008152600401610ab59061198c565b60405180910390fd5b600160025f8381526020019081526020015f206005015f6101000a81548160ff0219169083151502179055503373ffffffffffffffffffffffffffffffffffffffff16817fae45c6260346930c9824dfa2888d501cfd9372f592303b38f7788326fc22f01660405160405180910390a350565b60018160ff1610158015610b49575060058160ff1611155b610b88576040517f08c379a0000000000000000000000000000000000000000000000000000000008152600401610b7f906119f4565b60405180910390fd5b5f60025f8481526020019081526020015f2090505f73ffffffffffffffffffffffffffffffffffffffff16816001015f9054906101000a900473ffffffffffffffffffffffffffffffffffffffff1673ffffffffffffffffffffffffffffffffffffffff1603610c2d576040517f08c379a0000000000000000000000000000000000000000000000000000000008152600401610c249061198c565b60405180910390fd5b806005015f9054906101000a900460ff16610c7d576040517f08c379a0000000000000000000000000000000000000000000000000000000008152600401610c7490611a5c565b60405180910390fd5b806001015f9054906101000a900473ffffffffffffffffffffffffffffffffffffffff1673ffffffffffffffffffffffffffffffffffffffff163373ffffffffffffffffffffffffffffffffffffffff1603610d0e576040517f08c379a0000000000000000000000000000000000000000000000000000000008152600401610d0590611aea565b60405180910390fd5b60035f8481526020019081526020015f205f3373ffffffffffffffffffffffffffffffffffffffff1673ffffffffffffffffffffffffffffffffffffffff1681526020019081526020015f205f9054906101000a900460ff1615610da7576040517f08c379a0000000000000000000000000000000000000000000000000000000008152600401610d9e90611b52565b60405180910390fd5b600160035f8581526020019081526020015f205f3373ffffffffffffffffffffffffffffffffffffffff1673ffffffffffffffffffffffffffffffffffffffff1681526020019081526020015f205f6101000a81548160ff0219169083151502179055508160ff16816006015f828254610e219190611b70565b925050819055506001816007015f828254610e3c9190611b70565b925050819055503373ffffffffffffffffffffffffffffffffffffffff16837f15e119d82997a36bcb2637ac59f55aef3cac4888ed516297f70e936968b1337284604051610e8a9190611bb2565b60405180910390a3505050565b5f5ffd5b5f5ffd5b5f819050919050565b610eb181610e9f565b8114610ebb575f5ffd5b50565b5f81359050610ecc81610ea8565b92915050565b5f60208284031215610ee757610ee6610e97565b5b5f610ef484828501610ebe565b91505092915050565b610f0681610e9f565b82525050565b5f73ffffffffffffffffffffffffffffffffffffffff82169050919050565b5f610f3582610f0c565b9050919050565b610f4581610f2b565b82525050565b5f81519050919050565b5f82825260208201905092915050565b8281835e5f83830152505050565b5f601f19601f8301169050919050565b5f610f8d82610f4b565b610f978185610f55565b9350610fa7818560208601610f65565b610fb081610f73565b840191505092915050565b5f8115159050919050565b610fcf81610fbb565b82525050565b5f61010082019050610fe95f83018b610efd565b610ff6602083018a610f3c565b81810360408301526110088189610f83565b9050818103606083015261101c8188610f83565b905061102b6080830187610efd565b61103860a0830186610fc6565b61104560c0830185610efd565b61105260e0830184610efd565b9998505050505050505050565b5f6020820190506110725f830184610efd565b92915050565b5f5ffd5b5f5ffd5b5f5ffd5b5f5f83601f84011261109957611098611078565b5b8235905067ffffffffffffffff8111156110b6576110b561107c565b5b6020830191508360018202830111156110d2576110d1611080565b5b9250929050565b5f5f5f5f604085870312156110f1576110f0610e97565b5b5f85013567ffffffffffffffff81111561110e5761110d610e9b565b5b61111a87828801611084565b9450945050602085013567ffffffffffffffff81111561113d5761113c610e9b565b5b61114987828801611084565b925092505092959194509250565b61116081610f2b565b811461116a575f5ffd5b50565b5f8135905061117b81611157565b92915050565b5f5f6040838503121561119757611196610e97565b5b5f6111a485828601610ebe565b92505060206111b58582860161116d565b9150509250929050565b5f6020820190506111d25f830184610fc6565b92915050565b5f5f5f5f5f606086880312156111f1576111f0610e97565b5b5f6111fe88828901610ebe565b955050602086013567ffffffffffffffff81111561121f5761121e610e9b565b5b61122b88828901611084565b9450945050604086013567ffffffffffffffff81111561124e5761124d610e9b565b5b61125a88828901611084565b92509250509295509295909350565b5f60208201905061127c5f830184610f3c565b92915050565b5f60ff82169050919050565b61129781611282565b81146112a1575f5ffd5b50565b5f813590506112b28161128e565b92915050565b5f5f604083850312156112ce576112cd610e97565b5b5f6112db85828601610ebe565b92505060206112ec858286016112a4565b9150509250929050565b7f4e487b71000000000000000000000000000000000000000000000000000000005f52602260045260245ffd5b5f600282049050600182168061133a57607f821691505b60208210810361134d5761134c6112f6565b5b50919050565b7f4e487b71000000000000000000000000000000000000000000000000000000005f52601160045260245ffd5b5f61138a82610e9f565b91507fffffffffffffffffffffffffffffffffffffffffffffffffffffffffffffffff82036113bc576113bb611353565b5b600182019050919050565b7f4e487b71000000000000000000000000000000000000000000000000000000005f52604160045260245ffd5b5f819050815f5260205f209050919050565b5f6020601f8301049050919050565b5f82821b905092915050565b5f600883026114507fffffffffffffffffffffffffffffffffffffffffffffffffffffffffffffffff82611415565b61145a8683611415565b95508019841693508086168417925050509392505050565b5f819050919050565b5f61149561149061148b84610e9f565b611472565b610e9f565b9050919050565b5f819050919050565b6114ae8361147b565b6114c26114ba8261149c565b848454611421565b825550505050565b5f5f905090565b6114d96114ca565b6114e48184846114a5565b505050565b5b81811015611507576114fc5f826114d1565b6001810190506114ea565b5050565b601f82111561154c5761151d816113f4565b61152684611406565b81016020851015611535578190505b61154961154185611406565b8301826114e9565b50505b505050565b5f82821c905092915050565b5f61156c5f1984600802611551565b1980831691505092915050565b5f611584838361155d565b9150826002028217905092915050565b61159d82610f4b565b67ffffffffffffffff8111156115b6576115b56113c7565b5b6115c08254611323565b6115cb82828561150b565b5f60209050601f8311600181146115fc575f84156115ea578287015190505b6115f48582611579565b86555061165b565b601f19841661160a866113f4565b5f5b828110156116315784890151825560018201915060208501945060208101905061160c565b8683101561164e578489015161164a601f89168261155d565b8355505b6001600288020188555050505b505050505050565b828183375f83830152505050565b5f61167c8385610f55565b9350611689838584611663565b61169283610f73565b840190509392505050565b5f6040820190508181035f8301526116b6818688611671565b905081810360208301526116cb818486611671565b905095945050505050565b7f4e487b71000000000000000000000000000000000000000000000000000000005f52601260045260245ffd5b5f61170d82610e9f565b915061171883610e9f565b925082611728576117276116d6565b5b828204905092915050565b7f4f6e6c79207375626d69747465720000000000000000000000000000000000005f82015250565b5f611767600e83610f55565b915061177282611733565b602082019050919050565b5f6020820190508181035f8301526117948161175b565b9050919050565b7f416c726561647920617070726f766564000000000000000000000000000000005f82015250565b5f6117cf601083610f55565b91506117da8261179b565b602082019050919050565b5f6020820190508181035f8301526117fc816117c3565b9050919050565b5f82905092915050565b6118178383611803565b67ffffffffffffffff8111156118305761182f6113c7565b5b61183a8254611323565b61184582828561150b565b5f601f831160018114611872575f8415611860578287013590505b61186a8582611579565b8655506118d1565b601f198416611880866113f4565b5f5b828110156118a757848901358255600182019150602085019450602081019050611882565b868310156118c457848901356118c0601f89168261155d565b8355505b6001600288020188555050505b50505050505050565b7f4f6e6c792061646d696e000000000000000000000000000000000000000000005f82015250565b5f61190e600a83610f55565b9150611919826118da565b602082019050919050565b5f6020820190508181035f83015261193b81611902565b9050919050565b7f4e6f20737563682070726f6a65637400000000000000000000000000000000005f82015250565b5f611976600f83610f55565b915061198182611942565b602082019050919050565b5f6020820190508181035f8301526119a38161196a565b9050919050565b7f53636f726520312d3500000000000000000000000000000000000000000000005f82015250565b5f6119de600983610f55565b91506119e9826119aa565b602082019050919050565b5f6020820190508181035f830152611a0b816119d2565b9050919050565b7f4e6f7420617070726f76656400000000000000000000000000000000000000005f82015250565b5f611a46600c83610f55565b9150611a5182611a12565b602082019050919050565b5f6020820190508181035f830152611a7381611a3a565b9050919050565b7f5375626d69747465722063616e6e6f7420726576696577206f776e2070726f6a5f8201527f6563740000000000000000000000000000000000000000000000000000000000602082015250565b5f611ad4602383610f55565b9150611adf82611a7a565b604082019050919050565b5f6020820190508181035f830152611b0181611ac8565b9050919050565b7f416c7265616479207265766965776564000000000000000000000000000000005f82015250565b5f611b3c601083610f55565b9150611b4782611b08565b602082019050919050565b5f6020820190508181035f830152611b6981611b30565b9050919050565b5f611b7a82610e9f565b9150611b8583610e9f565b9250828201905080821115611b9d57611b9c611353565b5b92915050565b611bac81611282565b82525050565b5f602082019050611bc55f830184611ba3565b9291505056fea26469706673582212208486a8856889d768b2c54b33c4a203fd9dae87faa855bc9f8b56b9ad410c618b64736f6c634300081e0033","linkReferences":{}},"methodIdentifiers":{"addReview(uint256,uint8)":"ffce0692","admin()":"f851a440","approveProject(uint256)":"fc69d836","averageScore(uint256)":"8a8f221a","createProject(string,string)":"6bd06204","getProject(uint256)":"f0f3f2c8","hasReviewed(uint256,address)":"7c7198cc","nextId()":"61b8ce8c","projects(uint256)":"107046bd","updateProject(uint256,string,string)":"8c4c1347"},"id":0}